:100000000C9439010C9461010C9461010C94610110
:100010000C9461010C9461010C9461010C946101D8
:100020000C9461010C9461010C9461010C946101C8
:100030000C9461010C9461010C9461010C946101B8
:100040000C943C050C9461010C940A050C94E40496
:100050000C9461010C9461010C9461010C94610198
:100060000C9461010C9461013D2050415F4D415859
:10007000003D2050415F48494748003D2050415FC6
:100080004C4F57003D2050415F4D494E003D2031BF
:10009000362062697473003D2038206269747300F1
:1000A0003D2044697361626C6564006E524632346F
:1000B0004C30312B006E524632344C3031003D20F2
:1000C000323530204B425053003D2032204D4250BB
:1000D00053003D2031204D425053000000000800E5
:1000E00002010000030407000000000000000053AC
:1000F000544154555309093D203078253032782039
:1001000052585F44523D25782054585F44533D2552
:1001100078204D41585F52543D25782052585F5009
:100120005F4E4F3D25782054585F46554C4C3D2539
:10013000780D0A0041524309093D2025640D0A004B
:10014000504120506F7765720925530D0A008400D5
:100150007B0071006800435243204C656E677468F1
:100160000925530D0A00A00097008D004D6F6465AE
:100170006C09093D2025530D0A00B500AB00446110
:10018000746120526174650925530D0A00D200C9BB
:1001900000BE0044594E50442F46454154555245E7
:1001A00000434F4E464947090052465F5345545558
:1001B000500052465F43480900454E5F5258414443
:1001C000445200454E5F4141090052585F50575F0D
:1001D00050302D360054585F414444520900525863
:1001E0005F414444525F50322D350052585F4144C4
:1001F00044525F50302D3100535049205370656593
:10020000647A093D202564204D687A0A000D0A00B1
:100210002530327800203078002553093D000D0A42
:100220000020307825303278002553093D00000049
:100230000000250028002B000000000024002700FB
:100240002A00040404040404040402020202020258
:10025000030303030303010204081020408001028A
:100260000408102001020408102000010203040504
:10027000860511241FBECFEFD4E0DEBFCDBF11E055
:10028000A0E0B1E0E8E7FBE102C005900D92A434E4
:10029000B107D9F722E0A4E4B1E001C01D92AA3170
:1002A000B207E1F711E0C9E3D1E004C02197FE01F4
:1002B0000E94B40DC833D107C9F70E94DA050C9427
:1002C000BA0D0C94000090E0FC01EA5AFD4F249115
:1002D0008E5B9D4FFC018491882399F090E0880FFC
:1002E000991FFC01E85CFD4FA591B491FC01E25D12
:1002F000FD4F859194918FB7F894EC91E22BEC939C
:100300008FBF0895AF92BF92CF92DF92EF92FF928C
:100310000F931F93CF93DF936C017B018B01040F2D
:10032000151FEB015E01AE18BF08C017D10759F0C9
:100330006991D601ED91FC910190F081E02DC6010B
:100340000995892B79F7C501DF91CF911F910F9105
:10035000FF90EF90DF90CF90BF90AF900895FC0199
:10036000538D448D252F30E0842F90E0821B930B1A
:10037000541710F0CF96089501970895FC01918DC0
:10038000828D981761F0A28DAE0FBF2FB11D5D96C3
:100390008C91928D9F5F9F73928F90E008958FEF65
:1003A0009FEF0895FC01918D828D981731F0828D19
:1003B000E80FF11D858D90E008958FEF9FEF089570
:1003C000FC01918D228D892F90E0805C9F4F821BD4
:1003D00091098F739927089582E591E00E94E001C9
:1003E00021E0892B09F420E0822F089580E090E03D
:1003F000892B29F00E94EC0181110C9400000895D2
:10040000FC01A48DA80FB92FB11DA35ABF4F2C9189
:10041000848D90E001968F739927848FA689B78980
:100420002C93A089B1898C91837080648C93938D77
:10043000848D981306C00288F389E02D80818F7D1A
:1004400080830895EF92FF920F931F93CF93DF93D2
:10045000EC0181E0888F9B8D8C8D98131AC0E88900
:10046000F989808185FF15C09FB7F894EE89FF89CF
:100470006083E889F98980818370806480839FBF6D
:1004800081E090E0DF91CF911F910F91FF90EF906D
:100490000895F62E0B8D10E00F5F1F4F0F7311277D
:1004A000E02E8C8D8E110CC00FB607FCFACFE889B8
:1004B000F989808185FFF5CFCE010E940002F1CF3E
:1004C000EB8DEC0FFD2FF11DE35AFF4FF0829FB72C
:1004D000F8940B8FEA89FB8980818062CFCFCF931C
:1004E000DF93EC01888D8823B9F0AA89BB89E8895C
:1004F000F9898C9185FD03C0808186FD0DC00FB602
:1005000007FCF7CF8C9185FFF2CF808185FFEDCF7F
:10051000CE010E940002E9CFDF91CF91089590E0D3
:10052000FC01E552FF4F2491FC01EA5AFD4F349142
:10053000FC01EE5BFD4FE491EE23C9F0222339F07C
:10054000233001F1A8F4213019F1223029F1F0E033
:10055000EE0FFF1FE25DFD4FA591B4918FB7F894A8
:10056000EC91611126C030953E233C938FBF0895D6
:100570002730A9F02830C9F0243049F78091800055
:100580008F7D03C0809180008F7780938000DFCFC4
:1005900084B58F7784BDDBCF84B58F7DFBCF809111
:1005A000B0008F778093B000D2CF8091B0008F7D64
:1005B000F9CF3E2BDACF682F8091F4010E948F0291
:1005C00080910C0290910D028230910538F0880FD5
:1005D000991F880F991F05970197F1F7089581E0FA
:1005E0000C94DB023FB7F89480914501909146014D
:1005F000A0914701B091480126B5A89B05C02F3FA7
:1006000019F00196A11DB11D3FBFBA2FA92F982F38
:100610008827BC01CD01620F711D811D911D42E033
:10062000660F771F881F991F4A95D1F708958F92FB
:100630009F92AF92BF92CF92DF92EF92FF924B01C7
:100640005C010E94F2026B017C010E94F2026C19B3
:100650007D098E099F09683E734081059105A8F3C5
:1006600021E0821A9108A108B10888EEC80E83E043
:10067000D81EE11CF11C81149104A104B10429F7D6
:10068000FF90EF90DF90CF90BF90AF909F908F90B2
:1006900008958EBD00000DB407FEFDCF8EB5089500
:1006A000CF93C82F682F82E591E00E9422028C2F01
:1006B000CC0F990BCF9108950F931F930091F601E2
:1006C0001091F7012091F8013091F90140E052E1D9
:1006D0006AE770E080E0041715072607370740F443
:1006E00076956795579547958F5F8630A1F787E098
:1006F000982F906A9695809581709CBD8DBD80E005
:100700001F910F910C94DB02CF93C82F0E945C03C2
:100710008C2F80620E9449038093FA01CF910C9440
:10072000EF02CF93C82F0E945C038C2F0E944903D5
:100730008093FA018FEF0E944903C82F0E94EF02B5
:100740008C2FCF910895FF920F931F93CF93DF9338
:10075000C82FF62E072F142F0E945C038C2F806267
:100760000E9449038093FA01CF2DD02F115020F021
:1007700089910E944903FACFDF91CF911F910F9188
:10078000FF900C94EF020E945C0380E50E944903F5
:100790008093FA0183E70E9449030C94EF02CF9300
:1007A000DF93D82FC62F0E945C038D2F80620E949A
:1007B00049038093FA018C2F0E944903DF91CF9166
:1007C0000C94EF028091F2019091F3012091F401D9
:1007D0003091F5018217930719F060E00E948F02B3
:1007E00080910802909109028230910538F0880FBB
:1007F000991F880F991F05970197F1F780910402BF
:10080000882319F081EE0E948403609101026E7FBB
:100810006093010280E00E94CF0382E00E94910376
:10082000EAE6F2E0E49161E070E001C0660FEA956B
:10083000EAF7682B82E00C94CF036091010261FD1E
:100840000AC062606093010280E00E94CF038BE1E6
:100850009EE40197F1F70895FF920F931F93CF93B2
:10086000DF93C62FD42F9F938F9389E292E09F93BB
:100870008F930E947009DC0F0F900F900F900F90D4
:1008800001E212E0CD1791F0FF24F394FC0E8C2FBF
:100890000E9491031F928F931F930F930E947009E0
:1008A0000F900F900F900F90CF2DECCF8EE192E034
:1008B0009F938F930E9470090F900F90DF91CF91BB
:1008C0001F910F91FF9008958F929F92AF92BF92C8
:1008D000CF92DF92EF92FF920F931F93CF93DF930C
:1008E000C62FB42E9F938F9389E192E09F938F93AD
:1008F0000E9470098091050290E00F900F900F9078
:100900000F90009711F481E090E00E948B0B8C0116
:10091000BC0E85E1C82E82E0D82E90E1E92E92E04F
:10092000F92ECB15B1F1D0910502AA24A394AC0EF7
:100930000E945C038C2F8F710E9449038093FA01FF
:100940004801D15048F08FEF0E944903F401819390
:100950004F01F7CFCA2DE5CF0E94EF02DF92CF9271
:100960000E947009C0910502C00FD12FD11D0F90B8
:100970000F902197C017D10768F388811F928F933A
:10098000FF92EF920E9470090F900F900F900F90BE
:10099000F0CF0115110519F0C8010E94270C8DE058
:1009A00092E09F938F930E9470090F900F90DF91B8
:1009B000CF911F910F91FF90EF90DF90CF90BF905C
:1009C000AF909F908F9008951F920F920FB60F9245
:1009D00011242F933F934F935F936F937F938F9344
:1009E0009F93AF93BF93EF93FF9382E591E00E94B3
:1009F0000002FF91EF91BF91AF919F918F917F91F5
:100A00006F915F914F913F912F910F900FBE0F907B
:100A10001F9018951F920F920FB60F9211242F93CB
:100A20008F939F93EF93FF93E0916201F0916301A5
:100A30008081E0916801F091690182FD1BC0908185
:100A400080916B018F5F8F7320916C01821741F051
:100A5000E0916B01F0E0EE5AFE4F958F80936B01B1
:100A6000FF91EF919F918F912F910F900FBE0F905B
:100A70001F9018958081F4CF1F920F920FB60F929E
:100A800011242F933F938F939F93AF93BF938091A4
:100A90004A0190914B01A0914C01B0914D013091D0
:100AA000440123E0230F2D3758F50196A11DB11DF8
:100AB0002093440180934A0190934B01A0934C01F1
:100AC000B0934D018091450190914601A09147015D
:100AD000B09148010196A11DB11D809345019093ED
:100AE0004601A0934701B0934801BF91AF919F91F8
:100AF0008F913F912F910F900FBE0F901F901895DF
:100B000026E8230F0296A11DB11DD2CFE2E5F1E048
:100B10001382128288EE93E0A0E0B0E08483958394
:100B2000A683B78380E191E09183808385EC90E098
:100B30009587848784EC90E09787868780EC90E0A7
:100B4000918B808B81EC90E0938B828B82EC90E098
:100B5000958B848B86EC90E0978B868B118E128E12
:100B6000138E148EE0EFF1E087E090E093838283B0
:100B700088E090E09583848380E896E9A8E9B0E076
:100B800086839783A087B18780E28387128A138A3E
:100B900085E0858B81E0868B85E090E0A0E0B0E089
:100BA000848F958FA68FB78F8FEE91E0918380838E
:100BB00014860895789484B5826084BD84B581607C
:100BC00084BD85B5826085BD85B5816085BD809118
:100BD0006E00816080936E00109281008091810090
:100BE0008260809381008091810081608093810088
:100BF000809180008160809380008091B10084604A
:100C00008093B1008091B00081608093B0008091AA
:100C10007A00846080937A0080917A008260809369
:100C20007A0080917A00816080937A0080917A00C6
:100C3000806880937A001092C100E0916201F09187
:100C4000630182E08083E0915E01F0915F01108298
:100C5000E0916001F091610180E1808310926A016E
:100C6000E0916601F091670186E08083E091640184
:100C7000F0916501808180618083E0916401F09151
:100C80006501808188608083E0916401F091650155
:100C9000808180688083E0916401F09165018081AA
:100CA0008F7D808370E060E080E593E00E942509FD
:100CB00064E670E080E090E00E94170341E250E0BB
:100CC0006EE171E082E591E00E94820142E050E035
:100CD00060E471E082E591E00E948201CFB7F89470
:100CE00080914901811124C0ECE4F2E08491E0E6B6
:100CF000F2E09491E82FF0E0EE0FFF1FE85CFD4F6B
:100D0000A591B491EC91E92321F461E08AE00E947D
:100D10008F028AE00E9463018CB580618CBD8CB526
:100D200080648CBD8DE00E9463018BE00E946301B2
:100D3000809149018F5F80934901CFBF8091F2017B
:100D40009091F3018F3F980709F48FC02091F4012F
:100D50003091F5012F3F320709F487C082179307BE
:100D600031F00E9463018091F4010E94630180913F
:100D7000F2019091F3012091F4013091F501821775
:100D8000930719F060E00E948F0281E00E94DB026D
:100D900065E070E080E090E00E9417036FE584E07A
:100DA0000E94CF0385E590E0A0E0B0E080930802C8
:100DB00090930902A0930A02B0930B0267E086E0C9
:100DC0000E94CF038DE10E949103C82F0E94C303AC
:100DD0008DE10E94910391E0C81390E0909302028C
:100DE000882341F0C81302C00E94C30360E08DE174
:100DF0000E94CF031092040260E08CE10E94CF03B6
:100E0000109206026FE381E00E94CF0363E082E06C
:100E10000E94CF0380E28093FB01C1E16091FB015E
:100E20008C2F0E94CF03CF5FC731C1F763E083E00F
:100E30000E94CF0385E0809305026CE40E94CF03FB
:100E400060E787E00E94CF0382EE0E94840381EE78
:100E50000E9484036CE080E00E94CF0380E00E9447
:100E60009103809301020E941D048DE10E94910371
:100E7000682F64608DE10E94CF038CE10E94910392
:100E8000682F6F638CE10E94CF0381E0809306029C
:100E90006FE30E94CF0386E00E949103887F682F52
:100EA000616086E00E94CF036FE584E00E94CF037B
:100EB00086E00E949103877D4BE950E060E070E09E
:100EC000409308025093090260930A0270930B0248
:100ED000682F606286E00E94CF0386E00E94910343
:100EE00064E685E00E94CF03609101026C6060932C
:100EF000010280E00E94CF0380E28093FB01C1E108
:100F00006091FB018C2F0E94CF03CF5FC731C1F7E7
:100F10004091050260E071E08AE00E94A3034091E5
:100F2000050260E071E080E10E94A3030E94E203F9
:100F30006091F6017091F7018091F8019091F901AB
:100F400020E432E44FE050E00E94920D1F922F9374
:100F500088EF91E09F938F930E9470098FEF0E941A
:100F600084034091FA01842F90E0242F21701F9276
:100F70002F939C0135952795277033273F932F9307
:100F800044FB992790F91F929F9345FB992790F96D
:100F90001F929F9346FB882780F91F928F931F9281
:100FA0004F938FEE90E09F938F930E94700942E0E1
:100FB0006AE08BEE91E00E94640444E06CE08EED08
:100FC00091E00E942C0441E060E185ED91E00E94F7
:100FD000640446E061E18AEC91E00E942C0441E067
:100FE00061E083EC91E00E942C0441E062E089EB37
:100FF00091E00E942C0441E065E082EB91E00E94C8
:101000002C0441E066E089EA91E00E942C0441E072
:1010100060E081EA91E00E942C0442E06CE183E907
:1010200091E00E942C0486E00E9491038872EDB743
:10103000FEB772960FB6F894FEBF0FBEEDBFE2E0AA
:10104000F0E0803239F021E090E0883009F020E0D3
:10105000E22FF92FEE0FFF1FE357FE4F859194917A
:101060009F938F938EE791E09F938F930E947009D7
:10107000E0910202F0E0EE0FFF1FE658FE4F85916F
:1010800094919F938F938CE691E09F938F930E940E
:10109000700981E00E949103C82F80E00E949103B3
:1010A000809301022DB73EB7285F3F4F0FB6F894EB
:1010B0003EBF0FBE2DBF83FD04C0F0E0E0E0CC23B7
:1010C00031F0E2E0F0E082FD02C0E1E0F0E0EE0F9E
:1010D000FF1FEA59FE4F859194919F938F9386E568
:1010E00091E09F938F930E94700986E00E94910384
:1010F000E82FF0E0F595E795E370F0E0EE0FFF1FC5
:10110000E25BFE4F859194919F938F9380E491E0F1
:101110009F938F930E94700988E00E9491038F70C3
:101120001F928F9384E391E09F938F930E947009A5
:1011300010924E0110924F011092500110925101E5
:101140008DB79EB70C960FB6F8949EBF0FBE8DBF9D
:101150000AE612E0EE24E394F12CC0E0D0E02FB7D1
:10116000F89480914A0190914B01A0914C01B0916B
:101170004D012FBF40914E0150914F0160915001A0
:1011800070915101841B950BA60BB70B893E9340C0
:10119000A105B105E0F10E94E2030E941D046091E7
:1011A000010261606093010280E00E94CF0360E76A
:1011B00087E00E94CF038091F2019091F30120918A
:1011C000F4013091F5018217930719F061E00E9454
:1011D0008F0280910302882329F1409105026CEF70
:1011E00071E08AE00E94A3032FB7F89480914A012E
:1011F00090914B01A0914C01B0914D012FBF809374
:101200004E0190934F01A0935001B093510120974C
:1012100009F4A5CF0E94EC01882309F4A0CF0E9415
:1012200000009DCF82E00E949103F8019491970104
:1012300001C0220F9A95EAF72095622F682382E079
:101240000E94CF0310920302CFCF0F931F93CF932F
:10125000DF93009759F46115710541F4F0E0E0E087
:10126000CF01DF91CF911F910F9108958B01EC0178
:101270006EE070E081E090E00E946F0BFC01892B32
:1012800069F380E883830115110571F013870287E4
:1012900081E883838091100290911102892B21F4BF
:1012A000F0931102E09310022097D1F2D187C0870A
:1012B0008381826083838091120290911302892B33
:1012C00079F6F0931302E093120280911402909148
:1012D0001502892B29F6F0931502E0931402C0CF72
:1012E000B0E0A0E0E6E7F9E00C94690DAE01495FDB
:1012F0005F4FDA016D917D91AD0100E112E0F801DF
:1013000082819381DC0113962C91139728601396A8
:101310002C930E949509D8011296ED91FC9123819E
:10132000277F2383E4E00C94850DABE0B0E0EBE98C
:10133000F9E00C945B0D7C013B018A01FC011782F2
:101340001682838181FFC8C1CE0101965C01F7013D
:101350009381F30193FD859193FF81913F01882350
:1013600009F453C1853239F493FD859193FF81913E
:101370003F01853229F4B70190E00E94CD0CE7CF00
:10138000912C212C312CFFE1F31538F08B3211F127
:1013900090F4803209F1833229F137FC3CC020ED12
:1013A000280F2A3050F536FE20C08AE0989E200D86
:1013B0001124922E06C08D3291F0803371F768941B
:1013C00030F8F30193FD859193FF81913F018111E5
:1013D000DACF21C0689431F8689432F8F2CF68947B
:1013E00033F8EFCF689434F8ECCFEAE02E9E200D6E
:1013F0001124222E689435F8E4CF8E3229F436FC7D
:1014000004C1689436F8DDCF8C3619F4689437F847
:10141000D8CF8836B1F2982F9F7D95549330E0F065
:101420008336A1F18337C1F1833509F063C0280108
:10143000F2E04F0E511CF801C080D180692D70E0A0
:1014400036FC02C06FEF7FEFC6010E94B00C4C016A
:10145000689437F882010AC00C5F1F4FFFE3F983DD
:1014600088248394912C6501E89437F833FE2DC0CD
:10147000522C8114910471F5552009F468CFB701FD
:1014800080E290E00E94CD0C5A94F6CFF801808162
:1014900089830E5F1F4FE4CF2801F2E04F0E511CED
:1014A000F801C080D180692D70E036FC02C06FEF7A
:1014B0007FEFC6010E94C20C4C018201D5CFB7015B
:1014C00080E290E00E94CD0C2A942814190409F0BF
:1014D000B0F7CECFF60137FC859137FE81916F01D1
:1014E000B70190E00E94CD0C51105A94F1E08F1A90
:1014F0009108BFCF843619F0893609F077C0F8011A
:1015000037FE6BC060817181828193810C5F1F4FB8
:10151000F32DFF763F2E97FF09C09095809570952B
:1015200061957F4F8F4F9F4F689437F82AE030E0E6
:10153000A5010E94FD0CC82ECA188C2C432C36FE27
:101540000CC0E89440F8C91440F434FE05C032FCE5
:1015500003C0F32DFE7E4F2E892C44FE95C0FE0164
:10156000EC0DF11D8081803309F087C0242D297E88
:10157000422E842D8870582E43FC95C040FE8FC0AB
:101580009C2C821418F42C0C922C981844FE91C0B8
:10159000B70180E390E00E94CD0C42FE09C088E7CD
:1015A00090E041FE02C088E590E0B7010E94CD0CBA
:1015B000C91408F48AC0CA94D12C9FEFC91AD90A59
:1015C000CA0CDB1CF60182916F01B70190E00E940A
:1015D000CD0CAC14BD04B1F74FCF60817181072EE3
:1015E000000C880B990B0E5F1F4F92CFD32CE89401
:1015F000D4F82AE030E0853739F1232D297FD22E27
:101600008F3601F148F48835A9F0F701868197817A
:101610002B96E2E10C94770D803749F08837A9F7D3
:10162000D4FE02C06894D2F820E130E00DC0689486
:10163000D4F8F6CF34FE03C0822F8660D82E20E186
:1016400032E002C028E030E0F801D7FE0FC0608130
:101650007181828193810C5F1F4FA5010E94FD0C57
:10166000C82ECA183D2CE89437F867CF6081718185
:1016700090E080E00E5F1F4FF0CF42FC02C08394E9
:1016800078CF8394839475CF842D867809F471CFB5
:10169000F6CFB70180E290E00E94CD0C83948214D3
:1016A000C0F3512C73CF522C5818821408F46ECF0B
:1016B000F8CF842D867809F47BCF8BE241FE80E25F
:1016C00047FC8DE2B70190E071CFB70180E390E075
:1016D0000E94CD0C9A946CCF8FEF9FEF99CF0F9310
:1016E0001F93CF93DF93869F8001879F100D969F56
:1016F000100D1124C8010E948B0BEC01009729F0FA
:10170000A80170E060E00E94BB0CCE01DF91CF9198
:101710001F910F9108950F931F93CF93DF93823002
:10172000910510F482E090E0E0911802F091190226
:1017300030E020E0B0E0A0E0309799F421153105C9
:1017400009F44AC0281B390B24303105D8F58A81A9
:101750009B816115710589F1FB0193838283FE01F1
:1017600011C0408151810281138148175907E0F06F
:101770004817590799F4109761F012960C93129735
:1017800013961C933296CF01DF91CF911F910F9149
:1017900008950093180210931902F4CF2115310512
:1017A00051F04217530738F0A901DB019A01BD013E
:1017B000DF01F801C1CFEF01F9CF909319028093B7
:1017C0001802CDCFFE01E20FF31F819391932250B7
:1017D000310939832883D7CF20911602309117021F
:1017E000232B41F420910801309109013093170215
:1017F0002093160220910601309107012115310531
:1018000041F42DB73EB740910A0150910B01241BC2
:10181000350BE0911602F0911702E217F307A0F4DE
:101820002E1B3F0B2817390778F0AC014E5F5F4F36
:101830002417350748F04E0F5F1F5093170240934F
:101840001602819391939FCFF0E0E0E09CCFCF937D
:10185000DF930097E9F0FC01329713821282A09186
:101860001802B0911902ED0130E020E01097A1F4C8
:1018700020813181820F931F20911602309117022F
:101880002817390709F061C0F0931702E093160298
:10189000DF91CF910895EA01CE17DF07E8F54A817D
:1018A0005B819E0141155105B1F7E901FB83EA8394
:1018B00049915991C40FD51FEC17FD0761F4808140
:1018C00091810296840F951FE90199838883828113
:1018D00093819B838A83F0E0E0E012968D919C9146
:1018E00013970097B9F52D913C911197CD01029670
:1018F000820F931F20911602309117022817390783
:1019000039F6309751F51092190210921802B093DF
:101910001702A0931602BCCFD383C28340815181AA
:10192000840F951FC817D90761F44E5F5F4F8881F8
:101930009981480F591F518340838A819B819383EA
:1019400082832115310509F0B0CFF0931902E0939D
:1019500018029ECFFD01DC01C0CF13821282D7CFC7
:10196000FC010590615070400110D8F7809590956A
:101970008E0F9F1F0895DC0101C06D9341505040B0
:10198000E0F70895FC016150704001900110D8F714
:10199000809590958E0F9F1F08950F931F93CF935F
:1019A000DF93182F092FEB018B8181FD09C01FEFF9
:1019B0000FEF812F902FDF91CF911F910F910895FD
:1019C00082FF14C02E813F818C819D8128173907A9
:1019D0003CF4E881F981CF010196998388831083D3
:1019E0008E819F8101969F838E83E3CFE885F98561
:1019F000812F0995892BA1F3DACFFA01AA27283084
:101A000051F1203181F1E8946F936E7F6E5F7F4FCB
:101A10008F4F9F4FAF4FB1E03ED0B4E03CD0670F47
:101A2000781F891F9A1FA11D680F791F8A1F911D9A
:101A3000A11D6A0F711D811D911DA11D20D009F4EA
:101A400068943F912AE0269F11243019305D31932C
:101A5000DEF6CF010895462F4770405D4193B3E015
:101A60000FD0C9F7F6CF462F4F70405D4A3318F0BC
:101A7000495D31FD4052419302D0A9F7EACFB4E06D
:101A8000A6959795879577956795BA95C9F7009725
:101A90006105710508959B01AC010A2E06945795C6
:101AA000479537952795BA95C9F7620F731F841F1D
:101AB000951FA01D08952F923F924F925F926F92B3
:101AC0007F928F929F92AF92BF92CF92DF92EF92CE
:101AD000FF920F931F93CF93DF93CDB7DEB7CA1B4F
:101AE000DB0B0FB6F894DEBF0FBECDBF09942A887A
:101AF000398848885F846E847D848C849B84AA8422
:101B0000B984C884DF80EE80FD800C811B81AA81AE
:101B1000B981CE0FD11D0FB6F894DEBF0FBECDBF79
:101B2000ED010895A1E21A2EAA1BBB1BFD010DC0F9
:101B3000AA1FBB1FEE1FFF1FA217B307E407F5077D
:101B400020F0A21BB30BE40BF50B661F771F881F59
:101B5000991F1A9469F760957095809590959B01EF
:101B6000AC01BD01CF010895EE0FFF1F0590F49168
:081B7000E02D0994F894FFCF69
:101B780031534E53520000001A028000000000004A
:101B880022028201AF016F02E001BE01D2010A0AFE
:101B98004E524632344C30312041726475696E6F52
:101BA8002053696D706C652053656E6465722E00F4
:041BB8000D0A000012
:00000001FF
