:100000000C949C000C94C4000C94C4000C94C40088
:100010000C94C4000C94C4000C9494160C94C4006A
:100020000C94C4000C94C4000C94C4000C94C40040
:100030000C94C4000C94C4000C94C4000C94C40030
:100040000C944A160C94C4000C9418160C94F215D7
:100050000C94C4000C94C4000C94C4000C94C40010
:100060000C94C4000C94C400CDCCCC3D0AD7233CE6
:1000700017B7D13877CC2B329595E6241FB14F0AAC
:100080000000803FCDCCCC3D6F12833A95BFD63374
:100090007D1D9026B3CE010C000020410000C84217
:1000A00000401C4620BCBE4CCA1B0E5AAEC59D74F7
:1000B000005EBCE2613FDD83C29C7E20A3FD1F4148
:1000C000009D23BE46DB65F88C11AF32CA57E97438
:1000D00000000000250028002B000000000800029E
:1000E0000100000304070000000000000000000001
:1000F0000000240027002A000A0B0C0D0E0F00013F
:100100000203040500000000230026002900040467
:1001100004040404040402020202020203030303AF
:10012000030301020408102040800102040810208B
:10013000010204081020AB1611241FBECFEFD8E037
:10014000DEBFCDBF11E0A0E0B1E0E4EFF0E402C01B
:1001500005900D92A83FB107D9F724E0A8EFB1E0D0
:1001600001C01D92AB3BB207E1F710E0CCE9D0E053
:1001700004C02197FE010E944220CB39D107C9F764
:100180000E9469170C9478200C940000823091052D
:1001900038F0880F991F880F991F05970197F1F77D
:1001A0000895CF92DF92EF92FF92CF93DF93B091B9
:1001B0006004A0E08111AB2F8091610490E0880F72
:1001C000991FAC014C5F5E4FC0906604D0906704ED
:1001D000E0906804F090690430E020E0FA01C591F5
:1001E000D491E881B90190E080E0EB23EA130AC0E2
:1001F0002F5F3F4F6C157D058E059F0578F36FEFE0
:100200007FEFCB01DF91CF91FF90EF90DF90CF9008
:100210000895AF92BF92CF92DF92EF92FF920F9329
:100220001F93CF93DF936C017B018B01040F151F8C
:10023000EB015E01AE18BF08C017D10759F06991F4
:10024000D601ED91FC910190F081E02DC601099558
:10025000892B79F7C501DF91CF911F910F91FF9005
:10026000EF90DF90CF90BF90AF900895FC01538D39
:10027000448D252F30E0842F90E0821B930B541780
:1002800010F0CF96089501970895FC01918D828D0D
:10029000981761F0A28DAE0FBF2FB11D5D968C91A6
:1002A000928D9F5F9F73928F90E008958FEF9FEFE5
:1002B0000895FC01918D828D981731F0828DE80FA1
:1002C000F11D858D90E008958FEF9FEF0895FC015B
:1002D000918D228D892F90E0805C9F4F821B910928
:1002E0008F73992708958BEB93E00E94670121E0BB
:1002F000892B09F420E0822F089580E090E0892B7B
:1003000029F00E94730181110C9400000895FC01F2
:10031000A48DA80FB92FB11DA35ABF4F2C91848D66
:1003200090E001968F739927848FA689B7892C93C3
:10033000A089B1898C91837080648C93938D848D16
:10034000981306C00288F389E02D80818F7D808319
:100350000895EF92FF920F931F93CF93DF93EC01D9
:1003600081E0888F9B8D8C8D98131AC0E889F9895C
:10037000808185FF15C09FB7F894EE89FF8960835F
:10038000E889F98980818370806480839FBF81E0E0
:1003900090E0DF91CF911F910F91FF90EF90089522
:1003A000F62E0B8D10E00F5F1F4F0F731127E02EFD
:1003B0008C8D8E110CC00FB607FCFACFE889F98935
:1003C000808185FFF5CFCE010E948701F1CFEB8DB3
:1003D000EC0FFD2FF11DE35AFF4FF0829FB7F89409
:1003E0000B8FEA89FB8980818062CFCFCF93DF9327
:1003F000EC01888D8823B9F0AA89BB89E889F9893D
:100400008C9185FD03C0808186FD0DC00FB607FC71
:10041000F7CF8C9185FFF2CF808185FFEDCFCE01A4
:100420000E948701E9CFDF91CF91089590E0FC0110
:10043000E652FF4F2491FC01EE5DFE4F3491FC012A
:10044000E25FFE4FE491EE23C9F0222339F023301E
:1004500001F1A8F4213019F1223029F1F0E0EE0F7A
:10046000FF1FE053FF4FA591B4918FB7F894EC9123
:10047000611126C030953E233C938FBF08952730ED
:10048000A9F02830C9F0243049F7809180008F7D91
:1004900003C0809180008F7780938000DFCF84B588
:1004A0008F7784BDDBCF84B58F7DFBCF8091B0008B
:1004B0008F778093B000D2CF8091B0008F7DF9CF3D
:1004C0003E2BDACFCF93DF93C1E9D4E0682F8C8144
:1004D0000E9416028C8D9D8DDF91CF910C94C600E9
:1004E00081E00C9462022091930430919404409135
:1004F0009504509196042417350721F0682F822F18
:100500000C9416020895CF93DF9390E0FC01EE5D0A
:10051000FE4F2491825F9E4FFC0184918823C9F095
:1005200090E0880F991FFC01E251FF4FA591B49113
:10053000FC01E053FF4FC591D49161110DC09FB7ED
:10054000F8948C91209582238C938881282328838A
:100550009FBFDF91CF910895623051F49FB7F89417
:100560003C91822F809583238C93E8812E2BEFCFB3
:100570008FB7F894EC912E2B2C938FBFEACF3FB717
:10058000F8948091FD019091FE01A091FF01B0913E
:10059000000226B5A89B05C02F3F19F00196A11DAA
:1005A000B11D3FBFBA2FA92F982F8827BC01CD01BD
:1005B000620F711D811D911D42E0660F771F881F1C
:1005C000991F4A95D1F708958F929F92AF92BF924B
:1005D000CF92DF92EF92FF926B017C010E94BF02EB
:1005E0004B015C01C114D104E104F104B9F00E9493
:1005F000BF02681979098A099B09683E7340810521
:10060000910580F321E0C21AD108E108F10888EED3
:10061000880E83E0981EA11CB11CE4CFFF90EF90E0
:10062000DF90CF90BF90AF909F908F9008952FB79D
:10063000F8946091F9017091FA018091FB01909119
:10064000FC012FBF0895CF92DF92EF92FF920F939C
:100650001F93CF93DF93CDB7DEB7C054D1400FB611
:10066000F894DEBF0FBECDBF0E9417030091620455
:100670001091630420916404309165046B017C0146
:10068000C01AD10AE20AF30A97018601003D174019
:100690002105310590F480916A04C05CDE4F0FB6ED
:1006A000F894DEBF0FBECDBFDF91CF911F910F91A8
:1006B000FF90EF90DF90CF90089560936204709365
:1006C0006304809364049093650410925D04109217
:1006D0005C0410925B0410925A041092590462E078
:1006E00080915E040E94830261E070E080E090E00F
:1006F0000E94E40261E080915E040E94830260E057
:1007000080915E040E94160280915F0485518230C0
:10071000E0F48BE291E10197F1F762E080915E04F1
:100720000E94830280916B0490E00E94C600F894BE
:1007300080E00E94D1006F3F7F4F8F4F9F4F61F449
:1007400010926A04789480E0A8CF64E170E080E0C1
:1007500090E00E94E402E1CF81E00E94D1006F3F6F
:100760007F4F8F4F9F4F61F38E010F5F1F4F6E01C1
:100770002FEBC21A2EEFD20A780180E00E94D1003E
:10078000F701608371838283938381E00E94D100AB
:10079000F7016483758386839783F8E0EF0EF11C7D
:1007A000EC14FD0451F7789430E020E0F801C080AB
:1007B000D180E280F3804481558166817781FFEFAB
:1007C000CF16DF06EF06FF0631F04F3F8FEF5807D9
:1007D0006807780719F410926A04B5CFF90183E02D
:1007E000F595E7958A95E1F7E75AFB4F8081880FE9
:1007F000C416D506E606F70610F180832F5F3F4F3B
:10080000085F1F4F2832310589F640915D04209121
:10081000590480915A04280F3327331F80915B04B9
:10082000280F311D80915C04820F932F911D992711
:100830004817190681F681E080936A042ECF816003
:10084000DCCF8EBD00000DB407FEFDCF8EB5089540
:100850004115510529F4EAE7F0E080818F77808324
:100860006A307105B9F0CB01880F991F880F991F65
:10087000807267706860682B88E10FB6F894A8955D
:10088000809360000FBE60936000E0E6F0E080813E
:1008900080648083232BD9F483B7817F846083BFF6
:1008A000F89483B7816083BF85B7806685BF8F7DED
:1008B00085BF7894889583B78E7F83BF7894452BC6
:1008C00029F4EAE7F0E0808180688083089583B7A7
:1008D000817F846083BFF89483B7816083BF7894FD
:1008E000889583B78E7F83BF7894E9CFDC0180E061
:1008F000615090F09D919827E92FEF70F0E0E0555E
:10090000FF4F2491E92FE295EF70F0E0E054FF4FA4
:10091000E491822F8E27ECCF0895DC012C91119663
:10092000ED91FC91F8948181822B81839281322F09
:1009300030959323928387E090E00197F1F78181CE
:100940008323818383E290E00197F1F7908178948B
:10095000EFECF0E03197F1F7922381E009F480E0C9
:100960000895FC0190810180F281E02D292F2095CE
:1009700060FF14C0F8948281822382838181892B55
:100980008183A3E2B0E01197F1F78281982B9283E3
:10099000789487ED90E00197F1F70895F8948281BB
:1009A000822382838181892B8183AFEFB0E011970D
:1009B000F1F78281982B928378948FE090E0EBCFCF
:1009C000DF92EF92FF920F931F93CF93DF93EC018F
:1009D000D62EE42E08E010E0FF24F39461E08D2D84
:1009E0008F2109F460E0CE010E94B104FF0C015098
:1009F0001109A1F7E11010C0F894E981FA81918101
:100A00008881809589238183E981FA819281888117
:100A10008095892382837894DF91CF911F910F91E4
:100A2000FF90EF90DF900895EF92FF920F931F9346
:100A3000CF93DF938C017B0140E065E50E94E004E9
:100A4000E70188E0E80EF11C699140E0C8010E94CE
:100A5000E004CE15DF05C1F7DF91CF911F910F9113
:100A6000FF90EF900895FC0190810180F281E02DCC
:100A7000F8948181292F20958223818378943DE702
:100A800043E050E0315029F1DA011197F1F780810C
:100A90008923C1F3F8948281822382838181892B07
:100AA00081837894ABE7B7E01197F1F7F8948181EF
:100AB00082238183A3E1B1E01197F1F7808198232C
:100AC00081E009F080E07894E3E6F6E03197F1F711
:100AD000089580E008956F927F928F929F92AF92D7
:100AE000BF92CF92DF92EF92FF920F931F93CF931B
:100AF000DF938C01EB0180917504909176040E9444
:100B00003305882309F43FC0B801809175049091A2
:100B100076040E94140540E06EEB8091750490917C
:100B200076040E94E0047E016E0189E0C80ED11CAB
:100B30008E01A0907504B090760488E0882E912CE8
:100B4000712C66246394C5010E948D04811176285E
:100B5000660CE1E08E1A9108B1F7F80171928F01ED
:100B6000CE16DF0631F780917504909176040E94CD
:100B70003305813041F4F70181917F01811105C076
:100B8000E017F107C1F790E008C068E0CE010E94CD
:100B9000760491E028852813F6CF892FDF91CF9135
:100BA0001F910F91FF90EF90DF90CF90BF90AF908B
:100BB0009F908F907F906F900895CF93DF93CDB7E4
:100BC000DEB729970FB6F894DEBF0FBECDBFBE01CA
:100BD0006F5F7F4F0E946B05882331F08D818F33CB
:100BE000A9F020F48F31A1F080E007C08F3521F00B
:100BF0008F37D1F78CE001C08BE029960FB6F894BF
:100C0000DEBF0FBECDBFDF91CF9108958AE0F5CF53
:100C100089E0F3CF08959C01FB01309761F0948146
:100C200090789A609483C901330FAA0BBB0B808321
:100C30009183A283B3830895FC01A281B381808153
:100C4000918130E020E0A817B90738F4CD01019672
:100C5000938382836C9321E030E084819581820FBD
:100C6000931F958384830895CF93DF93FC01828142
:100C70009381EB01460F571FA281B38120813181FF
:100C8000A217B30758F4C417D50741F02991BD0145
:100C90006F5F7F4F738362832C93EECFA81BB90BDA
:100CA00084819581A80FB91FB583A483DF91CF916B
:100CB00008958F929F92AF92BF92CF92DF92EF9260
:100CC000FF920F931F93CF93DF93CDB7DEB7669755
:100CD0000FB6F894DEBF0FBECDBF6C018E01095E6A
:100CE0001F4F78018AE0882E912CA12CB12CCB01CA
:100CF000BA01A50194010E941520942F852F605DF3
:100D0000F80162938F01A901692F782F41155105D0
:100D10006105710561F7A7014E1B5F0BBF01C6019D
:100D20000E94340666960FB6F894DEBF0FBECDBFA4
:100D3000DF91CF911F910F91FF90EF90DF90CF90B7
:100D4000BF90AF909F908F90089580339CF08A332E
:100D500024F08F3524F08B3724F481E0089581341A
:100D60004CF08B35D4F393ED980F81E09230B0F3D3
:100D700080E008958B32B9F7F0CFFC0180858111B6
:100D80000AC0A581B681CD010196968385838C9199
:100D9000878381E08087878108959F92AF92BF9279
:100DA000CF92DF92EF92FF920F931F93CF93DF9337
:100DB00000D000D01F92CDB7DEB78C010E94BD06D7
:100DC000B82ED80118961C92F12CE12C70EFA72EAA
:100DD000C8010E94BD06F8011086B81609F4CBC000
:100DE000811119C0F801E55BFF4F82E090E091832B
:100DF000808380E00F900F900F900F900F90DF9105
:100E0000CF911F910F91FF90EF90DF90CF90BF9007
:100E1000AF909F9008958C3509F0A2C0C8010E9440
:100E2000BD068823F9F2ECE2F1E0853709F08CC0C9
:100E3000D80118961C9264E0962ED12CC12CC801C2
:100E40000E94BD06882371F281344CF480538031B6
:100E500048F0F801E55BFF4F83E090E0C8CF8F7D5D
:100E60008753F5CF54E0CC0CDD1C5A95E1F7C82A26
:100E7000F80110869A949110E2CFC601985D811511
:100E8000944020F4760123E0F222A2CFC6019C5DBB
:100E90008115944078F5B3E0DB22C701982F8827AD
:100EA000990F990F8C299D29B0E0A0E01196198225
:100EB000282F2F7320682A8336E0B695A79597953B
:100EC00087953A95D1F78032910530F5806C8B8308
:100ED000FE0134968291882309F47ACFD8014D918E
:100EE0005C9111979A012F5F3F4F2D933C93DA014C
:100EF0008C93F0CFC601B0E0A0E080389105A10549
:100F0000B105A8F6D801ED91FC911197CF0101969A
:100F10008D939C93C0825CCF282F2F7320682B83E6
:100F200026E0969587952A95E1F78031910528F47A
:100F3000806E8C83FE013596CDCF80688C83AD8228
:100F4000FE013696C7CF32969081992309F481CF5E
:100F50008913F9CF8181882309F47BCFF8011086AA
:100F6000D801ED91FC9111979F012F5F3F4F2D9379
:100F70003C9380832DCF81E03DCF1F93CF93DF93B0
:100F8000EC01162F0E94BD06811306C0188681E071
:100F9000DF91CF911F91089580E0FACFCF93DF9337
:100FA000EC01CE010E94BD068B303CF489304CF43C
:100FB000882349F081E08C8310C08D3011F080329D
:100FC000C9F71886EECF8C8181110AC081E090E0CC
:100FD000C55BDF4F9983888380E0DF91CF910895CF
:100FE00082E090E0F5CF0895DC01ED91FC9111973E
:100FF000309741F0948190789062948311821082AE
:1010000013821282BF0112968D919C910895CF9305
:10101000C82F682F8BEB93E00E94A9018C2FCC0F77
:10102000990BCF9108954F925F926F927F928F921A
:101030009F92AF92BF92CF92DF92EF92FF920F9367
:101040001F93CF93DF93EC018B0188818B32C9F121
:101050008D32C1F52196FF24F394888190ED980F8D
:101060009A3018F08E3209F04DC160E070E0CB018B
:10107000FE012191A0ED8A2E820E39E0381520F173
:101080006A3949E97407840749E1940738F5AAE009
:10109000B0E09B01AC010E943720912CB12CA12C17
:1010A000240135014094509460947094461657067C
:1010B0006806790698F0680D791D8A1D9B1DEF0161
:1010C000D7CF2196F12CC9CF211108C0FF20F1F113
:1010D00061307105810550E89507A0F0E12CEAE048
:1010E0008E2E912CA12CB12C61157105F0E88F0783
:1010F0009105C0F1A50194010E941520CA01B90112
:10110000E394F2CFF801248120782A6024839B01A4
:10111000AC0188279927DC01821B930BA40BB50B2C
:1011200080839183A283B3838F2DDF91CF911F9111
:101130000F91FF90EF90DF90CF90BF90AF909F9076
:101140008F907F906F905F904F900895F801248169
:101150002078286024836083718382839383FF24B3
:10116000F394E2CFFE01299130ED320F3A3010F4C2
:10117000E394F8CF2E32F1F4EF012196FE0121968F
:10118000208150EDD52ED20E29E02D1598F06C3C23
:101190003CEC73073CE08307910580F7AAE0B0E0E0
:1011A0009B01AC010E9437206D0D711D811D911DA9
:1011B000EA94E4CF20812F7DD0E0C0E0253409F00F
:1011C0005DC021812D32D9F53296CC24C394DF0144
:1011D000D0E0C0E02E2D0E2C000C330B4AE0B42ED4
:1011E000FD01DD9040ED4D0D4A3008F042C0BC9E3F
:1011F000A001BD9E500D1124CD2DDD0CDD0BE0971F
:10120000C40FD51FAE01420F531F4732510544F39F
:10121000F8018481CC20D1F040E050E060E070E83B
:10122000F11003C040E050E0BA0180788C60F80112
:1012300084834083518362837383FC2C75CF2B326C
:1012400019F03196C12CC3CF3296FCCF40E050E06C
:1012500060E87FEFF11004C040E050E060E87FE715
:1012600080788C60F8018483408351836283738328
:1012700076CFCC2019F0D195C195D10920812111CB
:1012800041C0CE0DD11DE7FCDA950E94C91E1C1687
:101290001D0604F5E12CC0FF0CC024E0E29EF00125
:1012A0001124E856FF4F25913591459154910E94A4
:1012B000801FD595C795E394209769F7F110905852
:1012C000F801248120782C602483608371838283D9
:1012D000938345CFD195C195D109E12C209771F326
:1012E000C0FF0CC044E0E49EF0011124E859FF4F18
:1012F00025913591459154910E94801FD595C795B0
:10130000E394ECCFF12C10CFCF92DF92EF92FF92CB
:10131000CF93DF9300D000D01F92CDB7DEB7FC0192
:1013200084818F778630B9F028F4843088F590E096
:1013300080E013C08A30E9F08C30B9F18830B9F719
:1013400080819181A281B381811520E89207A10556
:10135000B10568F702C0808190E00F900F900F9068
:101360000F900F90DF91CF91FF90EF90DF90CF9093
:10137000089580819181A281B381AC01BD01505853
:101380006F4F7F4F411551056140710580F6E5CFE4
:10139000808191811D82BE016F5F7F4F0E94130883
:1013A000CE0101960E948409D8CFC080D180E2800E
:1013B000F38020E030E040E057ECC701B6010E9426
:1013C0007B1F87FDB4CF20E03EEF4FEF56E4C7010F
:1013D000B6010E948E1E18160CF4A9CFC701B601E3
:1013E0000E94931ECB01B9CFCF93DF93DC01EB01B9
:1013F000EC81FD818A819B810896E817F90740F40A
:1014000081E08887F0E0E0E0CF01DF91CF9108959F
:101410003897FD83EC833097B9F31296CD91DC9128
:101420001397209791F0CF018C1B9D0B23E095958E
:1014300087952A95E1F78D831396FC93EE93129787
:101440001582148217821682DFCF1196FC93EE93D9
:10145000F3CFCF93DF93EC016A817B8188819981FF
:1014600030E020E0009719F00E94F4099C01B901D6
:101470008A819B81DF91CF910895FC0125812223F0
:1014800039F0F8E02F0290011124820F931F089584
:1014900090E080E00895EF92FF920F931F93CF9317
:1014A000DF937C018B01BA010E94F409EC01892BC6
:1014B00019F480E090E009C001151105A1F18C81BB
:1014C0008F778C831F830E83CE01DF91CF911F9185
:1014D0000F91FF90EF9008958C010115110531F0E7
:1014E000C8010E943D0AC817D907B1F7CE010E9472
:1014F0003D0A0115110599F020E0009741F09C018B
:10150000201B310B43E0359527954A95E1F7F8010B
:101510002583892B71F6F70113830283CACFF70164
:1015200091838083F6CFF70100811181D6CFEF92AE
:10153000FF920F931F93CF93DF93EC018B017A01FE
:10154000892B29F18C81982F9F7739F480788064DA
:101550008C83198218821B821A828C8186FF17C0A5
:1015600088819981009741F00115110591F00E9441
:101570003D0A01501109F6CF015011090E3F2FEF1E
:10158000120739F0B701CE010E94F409F5CF90E0BF
:1015900080E0DF91CF911F910F91FF90EF90089520
:1015A0000F931F9300919704109198042091990430
:1015B00030919A0440E052E16AE770E080E004175D
:1015C00015072607370740F4769567955795479591
:1015D0008F5F8630A1F787E0982F906A9695809567
:1015E00081709CBD8DBD80E01F910F910C946202B3
:1015F000CF93C82F0E94D00A8C2F80620E942104B2
:1016000080939B04CF910C947002CF93C82F0E94BB
:10161000D00A8C2F0E94210480939B048FEF0E949C
:101620002104C82F0E9470028C2FCF910895FF9241
:101630000F931F93CF93DF93C82FF62E072F142FEE
:101640000E94D00A8C2F80620E94210480939B0408
:10165000CF2DD02F115020F089910E942104FACF74
:10166000DF91CF911F910F91FF900C9470020E9417
:10167000D00A80E50E94210480939B0483E70E94A6
:1016800021040C947002CF93DF93D82FC62F0E94B1
:10169000D00A8D2F80620E94210480939B048C2F9E
:1016A0000E942104DF91CF910C94700280E00E948F
:1016B00073028091A9049091AA040E94C6008091AF
:1016C000A504882319F081EE0E94F80A6091A20413
:1016D0006E7F6093A20480E00E94430B82E00E9430
:1016E000050BEEEFF0E0E49161E070E001C0660F01
:1016F000EA95EAF7682B82E00C94430B6091A20410
:1017000061FD0AC062606093A20480E00E94430B06
:101710008BE19EE40197F1F70895BF92CF92DF929B
:10172000EF92FF920F931F93CF93DF93EC01B62EAE
:10173000C72E8D85811105C0CE010E943305811110
:101740000EC01B861D861C8680E0DF91CF911F9105
:101750000F91FF90EF90DF90CF90BF90089540E001
:1017600060EFCE010E94E00401E0E12CD12C11E0F9
:10177000CE010E948D04F82ECE010E948D0491E0CE
:10178000F91218C0813099F51134D8F2DB86D110E6
:1017900002C081E08D878B81882399F22396EB2DFF
:1017A000FC2DCF01089629912193E817F907D9F765
:1017B00081E0CBCFEE2DF0E0F8120FC08B8518172B
:1017C000A0F4DE01AE0FBF1F13968C91802379F435
:1017D000F12C193008F41C87D12EEC0FFD1F8381EA
:1017E000902F9095892383830AC08113F1CFFE0146
:1017F000EE0DF11D8381802B8383FF24F3946F2DE5
:10180000CE010E94B1041F5F000F11F4E39401E0C8
:1018100087E08E1508F0ACCFB7CFFF920F931F93E0
:10182000CF93DF938C01F62EE0917504F09176044E
:1018300013861586148612861186108617821682E4
:10184000158214821382C0E0B801809175049091D2
:1018500076040E948D0BD82F882329F0FC1629F0DE
:10186000CF5FFC1688F7D0E008C067E0C8010E948F
:101870007604F80197818913F3CF8D2FDF91CF91F3
:101880001F910F91FF900895FC0101900020E9F74E
:101890003197AF01481B590BBC018BEB93E00C94C3
:1018A0000901CF93DF930E94440CEC018DE391E09A
:1018B0000E94440C8C0F9D1FDF91CF910895CF9310
:1018C000DF93EC01FB01309779F0DC010D900020F3
:1018D000E9F71197A81BB90B9481907894609483D1
:1018E000D183C083B383A283DF91CF910895FB019D
:1018F00001900020E9F73197AF01461B570B0C947C
:1019000034061F93CF93DF93ECE2F1E012811123B1
:1019100079F0329621816213F9CFEC016CE50E94D7
:101920001C06612FCE01DF91CF911F910C941C06F4
:101930006111F9CF60E471E0DF91CF911F910C94B8
:10194000770C2F923F924F925F926F927F928F927D
:101950009F92AF92BF92CF92DF92EF92FF920F933E
:101960001F93CF93DF93CDB7DEB76C970FB6F89484
:10197000DEBF0FBECDBF8C011B01DC0114968C9124
:1019800014978F77863009F492C268F58230A0F1FF
:101990001296ED90FC901397CC901196DC908430C9
:1019A00008F056C2A701B601C1010E943406F10138
:1019B000848195816C960FB6F894DEBF0FBECDBFC3
:1019C000DF91CF911F910F91FF90EF90DF90CF901B
:1019D000BF90AF909F908F907F906F905F904F904F
:1019E0003F902F9008958C3069F160F4883009F4AD
:1019F00059C28A3009F43FC267E471E0C1010E9414
:101A0000770CE5C1803209F4ECC18034A9F76BE5AD
:101A1000C1010E941C06F801008111810115110508
:101A200009F4DAC1B101C8010E94A10CC8010E94E9
:101A30003D0A8C01892B09F4CFC16CE2C1010E94DF
:101A40001C06ECCFF801C080D180E280F380A701B2
:101A50009601C701B6010E948E1E8111CDCF20E0F4
:101A600030E0A901C701B6010E948E1E882379F0DB
:101A7000A7019601C701B6010E94221E9B01AC017D
:101A8000C701B6010E948E1E882309F4B5CF20E05D
:101A900030E0A901C701B6010E948E1E87FF08C071
:101AA0006DE2C1010E941C06F7FAF094F7F8F09479
:101AB00020E836E948E15BE4C701B6010E947B1FDC
:101AC00087FD81C074E1A72EB12C00E210E0188ED2
:101AD0001F8AF501E856FF4F2591359145915491A4
:101AE000C701B6010E947B1F87FD13C0F501E859AD
:101AF000FF4F2591359145915491C701B6010E9440
:101B0000801F6B017C012F89388D200F311F388F8A
:101B10002F8B1595079534E0A31AB1088CEFA81602
:101B20008FEFB806B1F655245A9420E030E0A901B1
:101B3000C701B6010E947B1F18160CF04BC02CEA9F
:101B400035EC47E257E3C701B6010E948E1E181616
:101B50000CF440C0A52DB4E0AB02C0011124B12C9F
:101B6000A12CFC01E058FF4F3F019C0128563F4F3C
:101B700049013FEF531671F1F301EA0DFB1D259169
:101B8000359145915491C701B6010E948E1E87FF81
:101B900013C0F401EA0DFB1D259135914591549137
:101BA000C701B6010E94801F6B017C018F89988D4F
:101BB000801B910B988F8F8B159507955A9494E005
:101BC000A91AB108D6CF00E210E055E0552E188EC4
:101BD0001F8AABCFC701B6010E949A1E4B015C0160
:101BE0002B013C0106E080E492E4AFE0B0E0898F95
:101BF0009A8FAB8FBC8F102F01509AE04916510479
:101C000061047104C8F0698D7A8D8B8D9C8D2AE0FA
:101C100030E040E050E00E941520298F3A8F4B8F32
:101C20005C8FC301B2012AE030E040E050E00E9446
:101C3000152029013A01DFCFC501B4010E94C91E58
:101C40009B01AC01C701B6010E94211E6B017C0102
:101C5000698D7A8D8B8D9C8D0E94C91E9B01AC0174
:101C6000C701B6010E94801F2B013C010E949A1EF1
:101C70006B017C010E94C91E9B01AC01C301B20132
:101C80000E94211E9B01AC010E94221E0E949A1EEE
:101C9000C60ED71EE81EF91E898D9A8DAB8DBC8DA0
:101CA000C816D906EA06FB06D8F09FEF891A990AEA
:101CB000A90AB90AAF89B88DAB2B39F1BAE08B16F6
:101CC0009104A104B10408F1EF89F88D3196F88FE1
:101CD000EF8BC12CD12C7601812C912C5401839453
:101CE0002AE0422E512C612C712CC701B601A301B0
:101CF00092010E941520672B682B692B51F4111655
:101D000044F469017A011150F0CFC12CD12C760135
:101D1000E7CFB501A401C1010E945906112371F159
:101D20004E01F1E18F0E911C012F54019AE0492ED2
:101D3000512C612C712C015068F0C701B601A30130
:101D400092010E941520605DD4016E934D016901DE
:101D50007A01F1CF812F90E0BC0160957095F5017B
:101D6000E81BF90B31978EE2808344275527461BE9
:101D7000570B6A0D7B1DC1010E943406EF89F88D57
:101D8000EF2B29F165E6C1010E941C060F89188D11
:101D900017FF07C06DE2C1010E941C061195019555
:101DA0001109FE0177969F018AE0E82EF12CC80107
:101DB000B7010E94ED1F805D82938B01672BB9F7FD
:101DC000A9014E1B5F0BBF01C1010E943406D10166
:101DD00014968D919C91EECD6DE5C1010E941C067B
:101DE000F6CF6BE7C1010E941C06F801008111814A
:101DF0000115110559F1D8011696CC901697179632
:101E0000DC9062E2C1010E941C067601F70161913B
:101E10007F01662321F0C1010E94810CF7CF62E2AD
:101E2000C1010E941C066AE3C1010E941C06B101A7
:101E3000C8010E94A10CC8010E943D0A8C01892B97
:101E400029F06CE2C1010E941C06D2CF6DE7C5CF1C
:101E500062E2C1010E941C068601E00EF11EE0163E
:101E6000F10639F0F80161918F01C1010E94810CE6
:101E7000F6CF62E2B2CFCD90DD90ED90FC90B7014D
:101E8000A601F7FE0BC06DE2C1010E941C064427AB
:101E90005527BA014C195D096E097F09C1010E94DD
:101EA000590685CD4D915D916D917C91F7CF8C91C7
:101EB0006CE471E0811102C061E571E0C1010E9432
:101EC000770C75CD0F931F93CF93DF93D0E0C0E0D5
:101ED0006115710591F08B01FC01C081D1812097C2
:101EE00061F06E817F81C8010E946020892B29F0FA
:101EF000CE010E943D0AEC01F2CFCE01DF91CF91DD
:101F00001F910F9108959F92AF92BF92CF92DF924F
:101F1000EF92FF920F931F93CF93DF93EC018B010E
:101F2000E42E0E94CE07D82E81110EC0F12C8F2DE9
:101F3000DF91CF911F910F91FF90EF90DF90CF90A5
:101F4000BF90AF909F900895CE010E94BD0687324A
:101F500009F416C114F5823209F412C1CE010E94AF
:101F6000BD06E82E5E01FBE0AF0EB11CF12C9A2CF1
:101F7000CB2C8E2D0E94A506882309F423C18FE364
:101F8000F81609F41FC11886F394F501E1925F0178
:101F9000CE010E94BD06E82EECCF8B35C1F18B3708
:101FA000E9F6F8018481807880628483118210824E
:101FB00013821282EE20B1F11886CE010E94CE0764
:101FC000882309F4B3CF6DE7CE010E94BD07F82E38
:101FD00081113EC0EA94888199819B838A83CE01D6
:101FE0000E94BD06873209F460C0823209F45DC0E8
:101FF000CE010E94BD06D82E0E94A5068111ADC05B
:10200000C55BDF4F83E090E09983888390CFF80130
:10201000848180788064848311821082138212828A
:10202000E11007C0C55BDF4F85E090E099838883AE
:102030007DCF1886CE010E94CE07882309F476CF83
:102040006DE5CE010E94BD07F82EEA94882311F0B9
:10205000FD2C6DCF69857A85C8010E94F40900972F
:1020600029F4C55BDF4F84E090E0CECF4E2DBC015C
:10207000CE010E94830F882309F458CFCE010E941D
:10208000CE07882309F452CF6DE5CE010E94BD072B
:102090008111DECF6CE2CE010E94BD078111DACF43
:1020A000C55BDF4F83E090E0C1CFCE010E94CD063B
:1020B000882309F43CCFCE010E94CE07882309F47F
:1020C00036CF6AE3CE010E94BD07882309F498CF7A
:1020D000E881F9811082C880D9806A817B81C8013A
:1020E0000E94620FBC01892BC1F4F6011082AA8004
:1020F000BB808881998101969983888369857A85D7
:10210000C8010E94F409FC01892B09F4AACF84813B
:102110008F778483B782A682BF014E2DCE010E94A5
:10212000830F882309F403CFCE010E94CE078823B2
:1021300009F4FDCE6DE7CE010E94BD0781111EC0DE
:102140006CE2CE010E94BD07882309F459CFCE016D
:102150000E94CE0781113FCFEACE1886E881F9812F
:10216000CF01019699838883D082CE010E94BD065B
:10217000D82E0E94A5068111F0CF9DCFF82ED7CE84
:10218000888199819B838A83CE010E94CD06F82E97
:10219000882309F4CBCEE881F98110822881398126
:1021A0004A815B81C901019699838883F801848102
:1021B00080788460848351834083241B350B338370
:1021C0002283B5CEFE01EF0DF11D13868B8584377A
:1021D00081F4F801848180788660848381E0808343
:1021E000F4E0FF1609F434CFC55BDF4F82E090E0E6
:1021F0001DCF863641F4F80184818078866084831F
:102200001082F5E0EECF8E3621F484E0F812ECCFA8
:102210001FCFB801892D9C2D0E941308882309F433
:102220003FCF16CFEF92FF920F931F93CF93DF9381
:10223000EC018C81982F9F7739F4807880628C83B1
:10224000198218821B821A828C8185FF15C0611544
:10225000710591F07A018B01CE010E94620F009707
:1022600069F4A701B801CE01DF91CF911F910F91C1
:10227000FF90EF900C944B0A80E090E0DF91CF91BB
:102280001F910F91FF90EF900895AB01009721F0FF
:1022900067E571E00C94121190E080E00895EF92F0
:1022A000FF920F931F93CF93DF930097A9F06115CF
:1022B000710591F07A018B01EC010E94620F009789
:1022C00069F4A701B801CE01DF91CF911F910F9161
:1022D000FF90EF900C944B0A80E090E0DF91CF915B
:1022E0001F910F91FF90EF900895CF93DF93EC0132
:1022F0004C815D816E817F818A819B810E944F111B
:102300000C80DD81C02DAE0170E060E00E94970A74
:10231000BE010E944511AC01CE01BA01DF91CF91FF
:1023200008958F929F92AF92BF92CF92DF92EF92D9
:10233000FF920F931F93CF93DF93CDB7DEB7CA5CA5
:10234000D1400FB6F894DEBF0FBECDBFCE010F96C1
:102350009A8389839C838B834FE951E04C0F5D1FE7
:102360005E834D8358874F8319861E868E010F5FCB
:102370001F4FA8016DE571E005970E941211BC0185
:1023800082E691E00E945F0CA8016EE671E0CE014A
:102390000A960E941211BC0180910C0190910D01CE
:1023A0000E940B06A80169E771E0CE010A960E941F
:1023B0001211BC0190E080E00E940B06A8016FE7BB
:1023C00071E0CE010A960E941211FC01892B41F0A6
:1023D00084818078806484831182108213821282C7
:1023E000C953DE4FF983E883C75CD140C753DE4F42
:1023F00019830883C95CD14080917504909176045B
:102400000E94330540E06CEC809175049091760455
:102410000E94E00440916C0464E480917504909102
:1024200076040E94E00480917004882311F1E09109
:102430006F0480917104882309F460C080916C045A
:1024400081115CC00E9417036B017C0180917504AF
:10245000909176040E948D04813059F00E941703F8
:102460006C197D098E099F096E3E724081059105A8
:1024700068F3CE0189539E4F0E94290AC156DE4F50
:10248000688379838A839B83CF59D140CE0181565B
:102490009E4F0E94F4076B017C01AC016DE571E079
:1024A000C6010E944F11BC0187E891E00E945F0CB9
:1024B000A70169E771E0C6010E944F11BC0190E0DD
:1024C00080E00E940B06A7016FE871E0C6010E9440
:1024D0004F11BC0184E991E00E945F0CBE0161567E
:1024E0007E4F82E092E00E946B0581112FC0812C0B
:1024F000912C3EEFA32E32ECB32E79C0E9508EEE34
:1025000092E0E33038F4F0E0EE0FFF1FEC5EFE4F98
:10251000808191816C01990FEE08FF0880916D0414
:10252000882329F060E080916E040E941602C701A2
:10253000B6010E94E40280916D04882309F499CFCA
:1025400061E080916E040E94160293CFC056DE4F68
:102550006881C05AD14070E0762F6627770F770FD9
:10256000770FC156DE4F2881CF59D14088E0289F90
:1025700090011124262B372B80910202803121F506
:10258000CA55DE4F6881C65AD1406623E9F070E033
:10259000CB55DE4F8881C55AD140FB01E81BF109BC
:1025A000CF019695982F8827979587950E940120AF
:1025B000CB018097B90153E0660F771F5A95E1F779
:1025C00060789C01260F371F2138F4EE3F070CF48A
:1025D0008ECFB901330F880B990B0E94CB1E20E0E0
:1025E00030E040E05CE30E94801F4B015C01CF5370
:1025F000DE4FC882D982EA82FB82C15CD140C056DC
:10260000DE4FC882D982EA82FB82C05AD140C854C8
:10261000DE4FC882D982EA82FB82C85BD140C255B4
:10262000DE4FC882D982EA82FB82CE5AD140CE5593
:10263000DE4FC882D982EA82FB82C25AD14080EA48
:1026400091E0CA55DE4F99838883C65AD140C85558
:10265000DE4F19821882C85AD14087E591E0C655ED
:10266000DE4F99838883CA5AD1408FE991E08C0F5D
:102670009D1F01960E947511FB01309741F08481E6
:1026800080788C60848380829182A282B382CE0122
:1026900089539E4F0E94290AC156DE4F6883798371
:1026A0008A839B83CF59D140CE0181569E4F0E9491
:1026B000F4076B017C01AC016DE571E0C6010E947D
:1026C0004F11BC0187EA91E00E945F0CA70169E706
:1026D00071E0C6010E944F11BC0181E090E00E94B0
:1026E0000B06A7016FE871E0C6010E944F11BC0103
:1026F00084E991E00E945F0C0E942303882341F04B
:1027000080915F048C3009F4E7C048F48B3001F10C
:10271000812C912C90ECA92E9FE7B92E43C08551B6
:102720008230B0F710915B04612F70E0762F66273E
:1027300066277F7780915C04682B90E080E00E94A0
:10274000C91E2DEC3CEC4CEC5DE30E94801FE0C008
:1027500060915B0470E090E080E00E94C91E4B0134
:102760005C0110915C0417FF0AC0AC019B0160E0A2
:1027700070E080E89FEB0E94211E4B015C011F70FE
:10278000612F70E090E080E00E94CB1E2DEC3CECCD
:102790004CEC5DE30E94801FA50194010E94221E63
:1027A0004B015C01CF53DE4FC882D982EA82FB82A3
:1027B000C15CD140C056DE4FC882D982EA82FB821A
:1027C000C05AD140C854DE4FC882D982EA82FB8207
:1027D000C85BD140C255DE4FC882D982EA82FB82F3
:1027E000CE5AD140CE55DE4FC882D982EA82FB82D2
:1027F000C25AD14080EA91E0CA55DE4F998388835E
:10280000C65AD140C855DE4F19821882C85AD140E5
:1028100087E591E0C655DE4F99838883CA5AD14037
:102820008FE991E08C0F9D1F01960E947511FB01AD
:10283000309741F0848180788C608483808291829B
:10284000A282B382CE0189539E4F0E94290AC156AB
:10285000DE4F688379838A839B83CF59D140CE0131
:1028600081569E4F0E94F4076B017C01AC016DE51F
:1028700071E0C6010E944F11BC0187EA91E00E94FD
:102880005F0CA70169E771E0C6010E944F11BC010E
:1028900082E090E00E940B06A7016FE871E0C6019C
:1028A0000E944F11BC018DEA91E00E945F0C0E94D2
:1028B0002303882351F080915F048B3030F08D30FA
:1028C00080F18551823008F47BC1812C912C80EC01
:1028D000A82E8FE7B82E43C010915B04612F70E0E3
:1028E00090E080E00E94C91E4B015C0160915C0495
:1028F0006F7070E090E080E00E94CB1E2DEC3CEC0D
:102900004CEC5DE30E94801FA50194010E94221EF1
:102910004B015C0117FF46CFB7FAB094B7F8B094FB
:1029200041CF60915A0470E090E080E00E94CB1E9D
:102930002DEC3CEC4CEC5DE30E94801F4B015C01F4
:102940006091590470E090E080E00E94CB1E9B01F2
:10295000AC01C501B4010E94221E4B015C01CF53A2
:10296000DE4FC882D982EA82FB82C15CD140C05668
:10297000DE4FC882D982EA82FB82C05AD140C85455
:10298000DE4FC882D982EA82FB82C85BD140C25541
:10299000DE4FC882D982EA82FB82CE5AD140CE5520
:1029A000DE4FC882D982EA82FB82C25AD14080EAD5
:1029B00091E0CA55DE4F99838883C65AD140C855E5
:1029C000DE4F19821882C85AD14087E591E0C6557A
:1029D000DE4F99838883CA5AD1408FE991E08C0FEA
:1029E0009D1F01960E947511FB01309741F0848173
:1029F00080788C60848380829182A282B382CE01AF
:102A000089539E4F0E94290AC156DE4F68837983FD
:102A10008A839B83CF59D140CE0181569E4F0E941D
:102A2000F4076B017C01AC016DE571E0C6010E9409
:102A30004F11BC0186EB91E00E945F0CA70169E792
:102A400071E0C6010E944F11BC0183E090E00E943A
:102A50000B06A7016FE871E0C6010E944F11BC018F
:102A60008EEB91E00E945F0C80E480937C0080916B
:102A70007A00806480937A0080917A0086FDFCCF92
:102A8000A0907800B0907900CF53DE4FC882D982F1
:102A9000EA82FB82C15CD140C056DE4FC882D98237
:102AA000EA82FB82C05AD140C854DE4FC882D98224
:102AB000EA82FB82C85BD140C255DE4FC882D98210
:102AC000EA82FB82CE5AD140CE55DE4FC882D982EF
:102AD000EA82FB82C25AD14080EA91E0CA55DE4FB9
:102AE00099838883C65AD140C855DE4F198218820F
:102AF000C85AD14087E591E0C655DE4F9983888357
:102B0000CA5AD1408FE991E08C0F9D1F01960E9417
:102B100075117B0161157105B1F0FB01848180782D
:102B20008C608483B501BB0C880B990B0E94CB1E73
:102B300020E030E040EA5BE30E94801FF701608301
:102B40007183828393838AE993E0C156DE4F998330
:102B50008883CF59D1408AE092E0CF55DE4F9983E8
:102B60008883C15AD140CD55DE4F19821882C35A8D
:102B7000D140BE0161567E4FCE010A960E94A10C43
:102B80008039F1E09F0720F4865F9D4FFC011082A1
:102B90008AE092E00E94510CC653DE4F0FB6F894C3
:102BA000DEBF0FBECDBFDF91CF911F910F91FF9080
:102BB000EF90DF90CF90BF90AF909F908F9008954F
:102BC0006091590470915A0476276727762790E020
:102BD00080E00E94C91E2DEC3CEC4CEC5DE30E94B1
:102BE000801FBBCE1F920F920FB60F9211242F930E
:102BF0003F934F935F936F937F938F939F93AF9385
:102C0000BF93EF93FF938BEB93E00E948701FF91BB
:102C1000EF91BF91AF919F918F917F916F915F9154
:102C20004F913F912F910F900FBE0F901F901895CD
:102C30001F920F920FB60F9211242F938F939F9391
:102C4000EF93FF93E091CB03F091CC038081E0916F
:102C5000D103F091D20382FD1BC090818091D403F7
:102C60008F5F8F732091D503821741F0E091D403D9
:102C7000F0E0E554FC4F958F8093D403FF91EF91E2
:102C80009F918F912F910F900FBE0F901F901895CD
:102C90008081F4CF1F920F920FB60F9211242F93C1
:102CA0003F938F939F93AF93BF938091F90190913E
:102CB000FA01A091FB01B091FC013091F80123E0F1
:102CC000230F2D3758F50196A11DB11D2093F80152
:102CD0008093F9019093FA01A093FB01B093FC015A
:102CE0008091FD019091FE01A091FF01B091000241
:102CF0000196A11DB11D8093FD019093FE01A0934B
:102D0000FF01B0930002BF91AF919F918F913F91CE
:102D10002F910F900FBE0F901F90189526E8230F4C
:102D20000296A11DB11DD2CF1F920F920FB60F9226
:102D300011248F930FB6F894A89580916000886154
:102D400080936000109260000FBE8F910F900FBEB5
:102D50000F901F901895CF93EBEBF3E01382128244
:102D600088EE93E0A0E0B0E084839583A683B783E8
:102D70008EE191E09183808385EC90E09587848754
:102D800084EC90E09787868780EC90E0918B808B35
:102D900081EC90E0938B828B82EC90E0958B848B1E
:102DA00086EC90E0978B868B118E128E138E148E8C
:102DB000E1E9F4E087E090E09383828388E090E0AB
:102DC0009583848380E896E9A8E9B0E086839783B9
:102DD000A087B18780E28387128A138A85E0858B7A
:102DE000C1E0C68B85E090E0A0E0B0E0848F958FD5
:102DF000A68FB78F88E594E091838083148660E086
:102E000082E00E948302E4E2F1E0E491A3E8B4E00E
:102E1000EC93E0E1F1E0E491F0E0EE0FFF1FEC5FF6
:102E2000FE4F8591949112969C938E9311971B96C9
:102E30001C921B971D961C921D971C961C921C970A
:102E40001A961C921A9719961C92199718961C920A
:102E5000189717961C92179716961C921697159608
:102E60001C92159714961C92149713961C92139704
:102E7000ECE6F4E0168A158A1182B287A1871782E0
:102E80001086108289E08383C483C583C683A9E545
:102E9000B4E083E015968C93159786E116968C9393
:102EA0001697E5E2F1E0E4911796EC931797E1E1CC
:102EB000F1E0E4911896EC93189740E85EE360E047
:102EC00070E01D964D935D936D937C935097CF91D9
:102ED0000895CF93DF93CDB7DEB7C05AD1090FB6AF
:102EE000F894DEBF0FBECDBF789484B5826084BDF8
:102EF00084B5816084BD85B5826085BD85B58160FE
:102F000085BD80916E00816080936E00109281007B
:102F10008091810082608093810080918100816036
:102F200080938100809180008160809380008091F7
:102F3000B10084608093B1008091B0008160809383
:102F4000B00080917A00846080937A0080917A004A
:102F5000826080937A0080917A00816080937A0009
:102F600080917A00806880937A001092C100E0918D
:102F7000CB03F091CC0382E08083E091C703F09112
:102F8000C8031082E091C903F091CA038FEC8083DB
:102F90001092D303E091CF03F091D00386E08083B9
:102FA000E091CD03F091CE03808180618083E09138
:102FB000CD03F091CE03808188608083E091CD03C2
:102FC000F091CE03808180688083E091CD03F09101
:102FD000CE0380818F7D808370E060E087E098E0A1
:102FE0000E948E1C61E087E00E94830260E086E020
:102FF0000E94830261E084E00E948302E0917504F4
:10300000F091760413861586148612861186108632
:103010001782168215821482138210927304109202
:1030200074048E010F5F1F4FFF24F394B801809149
:103030007504909176040E948D0B882309F45AC080
:1030400067E0C8010E94760498858913EFCF8091CC
:1030500073048F5F809373048981883231F008F0A4
:1030600041C0803111F0823209F7809174048F5F82
:103070008093740480916C04811126C08091750442
:10308000909176040E943305B80180917504909167
:1030900076040E94140540E064EB809175049091E1
:1030A00076040E94E00480917504909176040E9459
:1030B0008D04E82E80917504909176040E9433056A
:1030C000E11002C0F0926C048981803189F0C8015E
:1030D0000E94DD0590916F04981708F0A7CF8093A8
:1030E0006F04A4CF8B3309F2823409F09FCFBDCF98
:1030F0008CE0F0CF62E080915E040E9483020E9427
:103100001703605D774081099109609362047093B1
:103110006304809364049093650487E380936B0455
:10312000FFB6F89480910102811127C0E8E1F1E037
:103130008491ECE2F1E09491E82FF0E0EE0FFF1FB4
:10314000E251FF4FA591B491EC91E92321F461E0A4
:103150008AE00E94160261E08AE00E9483028CB538
:1031600080618CBD8CB580648CBD61E08DE00E9477
:10317000830261E08BE00E948302809101028F5FF5
:1031800080930102FFBE80919304909194048F3F3D
:10319000980709F488C020919504309196042F3F38
:1031A000320709F480C08217930741F061E00E9462
:1031B000830261E0809195040E94830280E00E9476
:1031C000730281E00E94620265E070E080E090E0BE
:1031D0000E94E4026FE584E00E94430B85E590E0E5
:1031E000A0E0B0E08093A9049093AA04A093AB045C
:1031F000B093AC0467E086E00E94430B8DE10E942F
:10320000050BF82E0E94370B8DE10E94050B91E013
:10321000F81290E09093A304882341F0F81202C0C2
:103220000E94370B60E08DE10E94430B1092A504D1
:1032300060E08CE10E94430B1092A7046FE381E0F1
:103240000E94430B63E082E00E94430B80E2809384
:103250009C04A1E1FA2E60919C048F2D0E94430BE7
:10326000F39487E1F812F7CF63E083E00E94430B09
:1032700085E08093A6046CE40E94430B60E787E03E
:103280000E94430B82EE0E94F80A81EE0E94F80A27
:103290006CE080E00E94430B80E00E94050B80936D
:1032A000A2040E947E0B8DE10E94050B682F6460D2
:1032B0008DE10E94430B8CE10E94050B682F6F6328
:1032C0008CE10E94430B81E08093A7046FE30E948E
:1032D000430B86E00E94050B887F682F616086E0C3
:1032E0000E94430B6FE584E00E94430B86E00E943E
:1032F000050B877D4BE950E060E070E04093A90446
:103300005093AA046093AB047093AC04682F60627E
:1033100086E00E94430B86E00E94050B64E685E090
:103320000E94430B6091A2046C606093A20480E051
:103330000E94430B80E280939C04F1E1FF2E609198
:103340009C048F2D0E94430BF39497E1F912F7CF61
:103350004091A60466E071E08AE00E94170B40915C
:10336000A60466E071E080E10E94170B4091A6047C
:1033700050E060E071E08DE994E00E94572081E028
:103380008093A404E8EFF0E084914091A60460E00B
:1033900071E00E94170B82E00E94050BEEEFF0E057
:1033A000949161E070E001C0660F9A95EAF7682B8E
:1033B00082E00E94430B0E94560B60E082E092E0A4
:1033C0000E940D0C811104C086EC91E00E94510C0A
:1033D00080910202803109F46DC0B80182E092E070
:1033E0000E946B05882309F465C08D818F3709F42D
:1033F00061C08FE78D8380917504909176040E945F
:10340000330562E072E080917504909176040E9429
:10341000140540E06EE480917504909176040E945A
:10342000E00440E06B8180917504909176040E94E5
:10343000E00440E06C8180917504909176040E94D4
:10344000E00480910202803141F040E06D81809182
:103450007504909176040E94E00480917504909127
:10346000760420917204222319F10E9433058823E7
:1034700009F162E072E080917504909176040E94F7
:10348000140540916C0468E4809175049091760471
:103490000E94E00480916C0481112EC064E170E010
:1034A00080E090E00E94E40280917504909176049F
:1034B0000E9433058CE080936F0480917304823006
:1034C000B0F1F12C80917304F81688F580916F04A7
:1034D0008C3069F16F2DC8010E940D0C89818031FB
:1034E00021F1C8010E94DD0590916F04981710F436
:1034F00080936F04F394E6CF80916D04882329F0C4
:1035000060E080916E040E94160264E170E080E049
:1035100090E00E94E40280916D04882329F261E02A
:1035200080916E040E941602BFCF8CE0DDCF5E0159
:10353000FFE0AF0EB11CE0E02E2EE0E03E2E24E6D0
:10354000C456DF4F2883CC59D04048EC60964FAF2B
:1035500060970E94911181E080939B038FE1EAE0E4
:10356000F2E0ACE9B3E001900D928A95E1F70E9498
:10357000560B79E2C72E72E0D72EF12CE12C8AEEA1
:1035800091E00E94510C8091A704712C50E2652EAD
:10359000811109C080919C04682E813210F060E294
:1035A000662E782E76180E94D00A80EA0E942104A6
:1035B00080939B044BE9842E43E0942E6A949FEF02
:1035C000691631F0D4018D914D010E942104F6CF8E
:1035D0007A94BFEF7B1621F080E00E942104F8CF9F
:1035E0000E94700281E00E9473020E9417032B0167
:1035F0003C018FEF0E94F80A80919B048073A9F52B
:103600000E941703641975098609970960367105C8
:103610008105910570F381E08093A80480E019A2F0
:10362000805D88A3CE0180960E94440C8DE391E0DA
:103630000E94440CEFEFEE1AFE0AFCE0EF16F104D4
:103640002CF541E050E0BE0164567F4F8BE993E0DA
:103650000E9469204FE150E0B6018CE993E00E949E
:1036600069208FE1C80ED11C8ACF80E00E947302CE
:1036700060E787E00E94430B80919B0484FF04C0B5
:1036800081EE0E94F80ACACF81E0C9CF2CE0E21691
:10369000F10471F441E050E0BE01615B7F4F8BE9C2
:1036A00093E00E9469204FE150E06EE773E0D5CFD0
:1036B000E0900C01F0900D0160E084E00E941602A1
:1036C000C7016AE070E00E9401206B01F12CE12C3F
:1036D000EC14FD04C4F430E020E050E040E069E088
:1036E00070E08AE993E00E94280430E020E050E096
:1036F00040E067E070E08AE993E00E9428044FEF21
:10370000E41AF40AE5CFBA82A982BC82AB828FE4C4
:1037100090E08C0F9D1F9E838D8398878F831986E1
:103720001E860E947E0B6091A20461606093A204D9
:1037300080E00E94430B60E787E00E94430B81E03A
:103740000E9473028091A4048823D1F14091A604C1
:103750006DE974E08AE00E94170B8FEF0E94F80A6F
:1037600080919B0490E0959587958770863008F04E
:103770003CC08091A704D12C90E2C92E811109C0D0
:1037800080919C04C82E813210F020E2C22ED82EE7
:10379000DC180E94D00A81E60E94210480939B04D9
:1037A0008BE9E82E83E0F82ECA949FEFC91609F43E
:1037B0006AC08FEF0E942104D7018D937D01F4CF61
:1037C00082E00E94050BEEEFF0E0949121E030E002
:1037D00001C0220F9A95EAF72095622F682382E0B4
:1037E0000E94430B1092A404B8CF89819A819C83D4
:1037F0008B838F8198859E838D8319861E868BE9A6
:1038000093E0C356DF4F99838883CD59D040C35688
:10381000DF4F88819981AA81BB81CD59D0406396C1
:103820008CAF9DAFAEAFBFAF639764961FAE64978A
:103830008BE993E066969FAF8EAF669768961FAE52
:1038400068976A961FAF0EAF6A97C656DF4F198208
:103850001882CA59D0404AE0BE01665F7F4FCE0150
:10386000815B9F4F0E94830F8E8585FD1BC02114B5
:10387000310409F464CE0E947301882309F45BCEFD
:103880000E94000058CEDA94BFEFDB1621F08FEFD4
:103890000E942104F8CF0E94700260E487E00E9439
:1038A000430B5BCF6DE571E0CE010A960E94620F7B
:1038B000FC01892BE1F284818F7784508230B8F645
:1038C0002281338150814181C9012830310510F0B6
:1038D00088E090E0E52FF42FAFEEB1E08E0F9F1F50
:1038E000E817F90729F051914D915417C9F3BFCF4B
:1038F0002830310509F0BBCF6EE671E0CE010A96A3
:103900000E94620F009739F490E080E090930D01DF
:1039100080930C01ACCF0E948409F8CF0F931F93C2
:10392000CF93DF93009759F46115710541F4F0E0EE
:10393000E0E0CF01DF91CF911F910F9108958B01AE
:10394000EC016EE070E081E090E00E94D91CFC0187
:10395000892B69F380E883830115110571F01387C2
:10396000028781E883838091B1049091B204892B0E
:1039700021F4F093B204E093B1042097D1F2D187FF
:10398000C0878381826083838091B3049091B40463
:10399000892B79F6F093B404E093B3048091B504D5
:1039A0009091B604892B29F6F093B604E093B50400
:1039B000C0CF0F931F93CF93DF93869F8001879F84
:1039C000100D969F100D1124C8010E94F51CEC01EA
:1039D000009729F0A80170E060E00E941A1ECE0155
:1039E000DF91CF911F910F9108950F931F93CF9364
:1039F000DF938230910510F482E090E0E091B90409
:103A0000F091BA0430E020E0B0E0A0E0309799F403
:103A10002115310509F44AC0281B390B2430310522
:103A2000D8F58A819B816115710589F1FB0193832A
:103A30008283FE0111C040815181028113814817A8
:103A40005907E0F04817590799F4109761F012965A
:103A50000C93129713961C933296CF01DF91CF915E
:103A60001F910F9108950093B9041093BA04F4CFF5
:103A70002115310551F04217530738F0A901DB0138
:103A80009A01BD01DF01F801C1CFEF01F9CF909399
:103A9000BA048093B904CDCFFE01E20FF31F8193E6
:103AA00091932250310939832883D7CF2091B704CD
:103AB0003091B804232B41F4209110013091110171
:103AC0003093B8042093B70420910E0130910F0178
:103AD0002115310541F42DB73EB7409112015091A7
:103AE0001301241B350BE091B704F091B804E217E1
:103AF000F307A0F42E1B3F0B2817390778F0AC0111
:103B00004E5F5F4F2417350748F04E0F5F1F5093ED
:103B1000B8044093B704819391939FCFF0E0E0E025
:103B20009CCFCF93DF930097E9F0FC01329713828B
:103B30001282A091B904B091BA04ED0130E020E006
:103B40001097A1F420813181820F931F2091B70437
:103B50003091B8042817390709F061C0F093B80410
:103B6000E093B704DF91CF910895EA01CE17DF0704
:103B7000E8F54A815B819E0141155105B1F7E901E4
:103B8000FB83EA8349915991C40FD51FEC17FD07B8
:103B900061F4808191810296840F951FE9019983D8
:103BA0008883828193819B838A83F0E0E0E0129690
:103BB0008D919C9113970097B9F52D913C91119798
:103BC000CD010296820F931F2091B7043091B80463
:103BD0002817390739F6309751F51092BA04109228
:103BE000B904B093B804A093B704BCCFD383C28305
:103BF00040815181840F951FC817D90761F44E5F2A
:103C00005F4F88819981480F591F518340838A8172
:103C10009B81938382832115310509F0B0CFF09306
:103C2000BA04E093B9049ECFFD01DC01C0CF13823A
:103C30001282D7CFDC0101C06D9341505040E0F7B4
:103C400008955058BB27AA270E94391E0C94411F83
:103C50000E94331F38F00E943A1F20F039F49F3F32
:103C600019F426F40C94301F0EF4E095E7FB0C9445
:103C70002A1FE92F0E94521F58F3BA1762077307D1
:103C80008407950720F079F4A6F50C94741F0EF4C0
:103C9000E0950B2EBA2FA02D0B01B90190010C015C
:103CA000CA01A0011124FF27591B99F0593F50F474
:103CB000503E68F11A16F040A22F232F342F4427CC
:103CC000585FF3CF469537952795A795F0405395C4
:103CD000C9F77EF41F16BA0B620B730B840BBAF094
:103CE0009150A1F0FF0FBB1F661F771F881FC2F7FF
:103CF0000EC0BA0F621F731F841F48F48795779513
:103D00006795B795F7959E3F08F0B0CF9395880FCC
:103D100008F09927EE0F9795879508950E94061F42
:103D200008F481E008950E949A1E6894B1110C94E1
:103D3000751F08950E945A1F88F09F5798F0B92F59
:103D40009927B751B0F0E1F0660F771F881F991FD0
:103D50001AF0BA95C9F714C0B13091F00E94741FDF
:103D6000B1E008950C94741F672F782F8827B85FEF
:103D700039F0B93FCCF3869577956795B395D9F728
:103D80003EF490958095709561957F4F8F4F9F4F32
:103D90000895E89409C097FB3EF49095809570953E
:103DA00061957F4F8F4F9F4F9923A9F0F92F96E987
:103DB000BB279395F695879577956795B795F111FC
:103DC000F8CFFAF4BB0F11F460FF1BC06F5F7F4F99
:103DD0008F4F9F4F16C0882311F096E911C07723AB
:103DE00021F09EE8872F762F05C0662371F096E8B4
:103DF000862F70E060E02AF09A95660F771F881F83
:103E0000DAF7880F9695879597F90895990F000826
:103E1000550FAA0BE0E8FEEF16161706E807F9079C
:103E2000C0F012161306E407F50798F0621B730B37
:103E3000840B950B39F40A2661F0232B242B252BB8
:103E400021F408950A2609F4A140A6958FEF811D5B
:103E5000811D089597F99F6780E870E060E00895FC
:103E60009FEF80EC089500240A9416161706180692
:103E70000906089500240A9412161306140605066E
:103E80000895092E0394000C11F4882352F0BB0FFF
:103E900040F4BF2B11F460FF04C06F5F7F4F8F4F62
:103EA0009F4F089557FD9058440F551F59F05F3F9D
:103EB00071F04795880F97FB991F61F09F3F79F04C
:103EC00087950895121613061406551FF2CF4695CE
:103ED000F1DF08C0161617061806991FF1CF869550
:103EE0007105610508940895E894BB276627772734
:103EF000CB0197F908950E94061F08F48FEF0895EB
:103F00000E94931F0C94411F0E94331F38F00E949F
:103F10003A1F20F0952311F00C942A1F0C94301FA7
:103F200011240C94751F0E94521F70F3959FC1F3CA
:103F3000950F50E0551F629FF001729FBB27F00D57
:103F4000B11D639FAA27F00DB11DAA1F649F6627AC
:103F5000B00DA11D661F829F2227B00DA11D621FFB
:103F6000739FB00DA11D621F839FA00D611D221FB5
:103F7000749F3327A00D611D231F849F600D211D99
:103F8000822F762F6A2F11249F5750409AF0F1F01C
:103F900088234AF0EE0FFF1FBB1F661F771F881F85
:103FA00091505040A9F79E3F510580F00C942A1F74
:103FB0000C94751F5F3FE4F3983ED4F38695779594
:103FC0006795B795F795E7959F5FC1F7FE2B880F2B
:103FD000911D9695879597F90895AA1BBB1B51E1F2
:103FE00007C0AA1FBB1FA617B70710F0A61BB70B69
:103FF000881F991F5A95A9F780959095BC01CD010E
:10400000089597FB072E16F4009407D077FD09D08A
:104010000E94ED1F07FC05D03EF4909581959F4FBF
:104020000895709561957F4F0895A1E21A2EAA1BFD
:10403000BB1BFD010DC0AA1FBB1FEE1FFF1FA21758
:10404000B307E407F50720F0A21BB30BE40BF50B55
:10405000661F771F881F991F1A9469F760957095DE
:10406000809590959B01AC01BD01CF0108950E9400
:104070004820A59F900DB49F900DA49F800D911D89
:1040800011240895EE0FFF1F0590F491E02D09947F
:10409000A29FB001B39FC001A39F700D811D112489
:1040A000911DB29F700D811D1124911D0895FB017A
:1040B000DC0102C001900D9241505040D8F70895A4
:1040C000FB01DC018D91019080190110D9F3990B4E
:1040D0000895FB01DC014150504048F001900D92E1
:1040E0000020C9F701C01D9241505040E0F70895EB
:0440F000F894FFCF72
:1040F40031534E53540031534E5352002C0100009F
:10410400BB0480005E00BC00770100000000A90130
:1041140009013601F6016701450159012F2F2222B9
:104124005C5C6208660C6E0A720D7409000D0A006C
:104134005C7530303030006E756C6C00747275656F
:104144000066616C73650076616C7565006E616D07
:10415400650047727A79626961726E6961006465AB
:104164006C61795F74696D6500696E64657800736C
:10417400656E736F72730044533138423230007489
:104184007970650074656D7065726174757265002F
:1041940076616C7565730044485432320068756DFD
:1041A4006964697479006261747465727900766F08
:1041B4006C7461676500556E61626C6520746F2074
:1041C40066696E64206164647265737320666F72DD
:1041D400204465766963652030006573736100531C
:0841E4007461636A612031007F
:00000001FF
